{"abi":[{"type":"constructor","inputs":[{"name":"token","type":"address","internalType":"contract IVotes"},{"name":"timelock","type":"address","internalType":"contract TimelockController"},{"name":"proposalThresholdTokens","type":"uint256","internalType":"uint256"},{"name":"votingDelayBlocks","type":"uint256","internalType":"uint256"},{"name":"votingPeriodBlocks","type":"uint256","internalType":"uint256"},{"name":"quorumPercent","type":"uint256","internalType":"uint256"}],"stateMutability":"nonpayable"},{"type":"receive","stateMutability":"payable"},{"type":"function","name":"BALLOT_TYPEHASH","inputs":[],"outputs":[{"name":"","type":"bytes32","internalType":"bytes32"}],"stateMutability":"view"},{"type":"function","name":"CLOCK_MODE","inputs":[],"outputs":[{"name":"","type":"string","internalType":"string"}],"stateMutability":"view"},{"type":"function","name":"COUNTING_MODE","inputs":[],"outputs":[{"name":"","type":"string","internalType":"string"}],"stateMutability":"pure"},{"type":"function","name":"EXTENDED_BALLOT_TYPEHASH","inputs":[],"outputs":[{"name":"","type":"bytes32","internalType":"bytes32"}],"stateMutability":"view"},{"type":"function","name":"cancel","inputs":[{"name":"proposalId","type":"uint256","internalType":"uint256"}],"outputs":[],"stateMutability":"nonpayable"},{"type":"function","name":"cancel","inputs":[{"name":"targets","type":"address[]","internalType":"address[]"},{"name":"values","type":"uint256[]","internalType":"uint256[]"},{"name":"calldatas","type":"bytes[]","internalType":"bytes[]"},{"name":"descriptionHash","type":"bytes32","internalType":"bytes32"}],"outputs":[{"name":"","type":"uint256","internalType":"uint256"}],"stateMutability":"nonpayable"},{"type":"function","name":"castVote","inputs":[{"name":"proposalId","type":"uint256","internalType":"uint256"},{"name":"support","type":"uint8","internalType":"uint8"}],"outputs":[{"name":"","type":"uint256","internalType":"uint256"}],"stateMutability":"nonpayable"},{"type":"function","name":"castVoteBySig","inputs":[{"name":"proposalId","type":"uint256","internalType":"uint256"},{"name":"support","type":"uint8","internalType":"uint8"},{"name":"voter","type":"address","internalType":"address"},{"name":"signature","type":"bytes","internalType":"bytes"}],"outputs":[{"name":"","type":"uint256","internalType":"uint256"}],"stateMutability":"nonpayable"},{"type":"function","name":"castVoteWithReason","inputs":[{"name":"proposalId","type":"uint256","internalType":"uint256"},{"name":"support","type":"uint8","internalType":"uint8"},{"name":"reason","type":"string","internalType":"string"}],"outputs":[{"name":"","type":"uint256","internalType":"uint256"}],"stateMutability":"nonpayable"},{"type":"function","name":"castVoteWithReasonAndParams","inputs":[{"name":"proposalId","type":"uint256","internalType":"uint256"},{"name":"support","type":"uint8","internalType":"uint8"},{"name":"reason","type":"string","internalType":"string"},{"name":"params","type":"bytes","internalType":"bytes"}],"outputs":[{"name":"","type":"uint256","internalType":"uint256"}],"stateMutability":"nonpayable"},{"type":"function","name":"castVoteWithReasonAndParamsBySig","inputs":[{"name":"proposalId","type":"uint256","internalType":"uint256"},{"name":"support","type":"uint8","internalType":"uint8"},{"name":"voter","type":"address","internalType":"address"},{"name":"reason","type":"string","internalType":"string"},{"name":"params","type":"bytes","internalType":"bytes"},{"name":"signature","type":"bytes","internalType":"bytes"}],"outputs":[{"name":"","type":"uint256","internalType":"uint256"}],"stateMutability":"nonpayable"},{"type":"function","name":"clock","inputs":[],"outputs":[{"name":"","type":"uint48","internalType":"uint48"}],"stateMutability":"view"},{"type":"function","name":"eip712Domain","inputs":[],"outputs":[{"name":"fields","type":"bytes1","internalType":"bytes1"},{"name":"name","type":"string","internalType":"string"},{"name":"version","type":"string","internalType":"string"},{"name":"chainId","type":"uint256","internalType":"uint256"},{"name":"verifyingContract","type":"address","internalType":"address"},{"name":"salt","type":"bytes32","internalType":"bytes32"},{"name":"extensions","type":"uint256[]","internalType":"uint256[]"}],"stateMutability":"view"},{"type":"function","name":"execute","inputs":[{"name":"targets","type":"address[]","internalType":"address[]"},{"name":"values","type":"uint256[]","internalType":"uint256[]"},{"name":"calldatas","type":"bytes[]","internalType":"bytes[]"},{"name":"descriptionHash","type":"bytes32","internalType":"bytes32"}],"outputs":[{"name":"","type":"uint256","internalType":"uint256"}],"stateMutability":"payable"},{"type":"function","name":"execute","inputs":[{"name":"proposalId","type":"uint256","internalType":"uint256"}],"outputs":[],"stateMutability":"payable"},{"type":"function","name":"getProposalId","inputs":[{"name":"targets","type":"address[]","internalType":"address[]"},{"name":"values","type":"uint256[]","internalType":"uint256[]"},{"name":"calldatas","type":"bytes[]","internalType":"bytes[]"},{"name":"descriptionHash","type":"bytes32","internalType":"bytes32"}],"outputs":[{"name":"","type":"uint256","internalType":"uint256"}],"stateMutability":"view"},{"type":"function","name":"getVotes","inputs":[{"name":"account","type":"address","internalType":"address"},{"name":"timepoint","type":"uint256","internalType":"uint256"}],"outputs":[{"name":"","type":"uint256","internalType":"uint256"}],"stateMutability":"view"},{"type":"function","name":"getVotesWithParams","inputs":[{"name":"account","type":"address","internalType":"address"},{"name":"timepoint","type":"uint256","internalType":"uint256"},{"name":"params","type":"bytes","internalType":"bytes"}],"outputs":[{"name":"","type":"uint256","internalType":"uint256"}],"stateMutability":"view"},{"type":"function","name":"hasVoted","inputs":[{"name":"proposalId","type":"uint256","internalType":"uint256"},{"name":"account","type":"address","internalType":"address"}],"outputs":[{"name":"","type":"bool","internalType":"bool"}],"stateMutability":"view"},{"type":"function","name":"hashProposal","inputs":[{"name":"targets","type":"address[]","internalType":"address[]"},{"name":"values","type":"uint256[]","internalType":"uint256[]"},{"name":"calldatas","type":"bytes[]","internalType":"bytes[]"},{"name":"descriptionHash","type":"bytes32","internalType":"bytes32"}],"outputs":[{"name":"","type":"uint256","internalType":"uint256"}],"stateMutability":"pure"},{"type":"function","name":"name","inputs":[],"outputs":[{"name":"","type":"string","internalType":"string"}],"stateMutability":"view"},{"type":"function","name":"nonces","inputs":[{"name":"owner","type":"address","internalType":"address"}],"outputs":[{"name":"","type":"uint256","internalType":"uint256"}],"stateMutability":"view"},{"type":"function","name":"onERC1155BatchReceived","inputs":[{"name":"","type":"address","internalType":"address"},{"name":"","type":"address","internalType":"address"},{"name":"","type":"uint256[]","internalType":"uint256[]"},{"name":"","type":"uint256[]","internalType":"uint256[]"},{"name":"","type":"bytes","internalType":"bytes"}],"outputs":[{"name":"","type":"bytes4","internalType":"bytes4"}],"stateMutability":"nonpayable"},{"type":"function","name":"onERC1155Received","inputs":[{"name":"","type":"address","internalType":"address"},{"name":"","type":"address","internalType":"address"},{"name":"","type":"uint256","internalType":"uint256"},{"name":"","type":"uint256","internalType":"uint256"},{"name":"","type":"bytes","internalType":"bytes"}],"outputs":[{"name":"","type":"bytes4","internalType":"bytes4"}],"stateMutability":"nonpayable"},{"type":"function","name":"onERC721Received","inputs":[{"name":"","type":"address","internalType":"address"},{"name":"","type":"address","internalType":"address"},{"name":"","type":"uint256","internalType":"uint256"},{"name":"","type":"bytes","internalType":"bytes"}],"outputs":[{"name":"","type":"bytes4","internalType":"bytes4"}],"stateMutability":"nonpayable"},{"type":"function","name":"proposalCount","inputs":[],"outputs":[{"name":"","type":"uint256","internalType":"uint256"}],"stateMutability":"view"},{"type":"function","name":"proposalDeadline","inputs":[{"name":"proposalId","type":"uint256","internalType":"uint256"}],"outputs":[{"name":"","type":"uint256","internalType":"uint256"}],"stateMutability":"view"},{"type":"function","name":"proposalDetails","inputs":[{"name":"proposalId","type":"uint256","internalType":"uint256"}],"outputs":[{"name":"targets","type":"address[]","internalType":"address[]"},{"name":"values","type":"uint256[]","internalType":"uint256[]"},{"name":"calldatas","type":"bytes[]","internalType":"bytes[]"},{"name":"descriptionHash","type":"bytes32","internalType":"bytes32"}],"stateMutability":"view"},{"type":"function","name":"proposalDetailsAt","inputs":[{"name":"index","type":"uint256","internalType":"uint256"}],"outputs":[{"name":"proposalId","type":"uint256","internalType":"uint256"},{"name":"targets","type":"address[]","internalType":"address[]"},{"name":"values","type":"uint256[]","internalType":"uint256[]"},{"name":"calldatas","type":"bytes[]","internalType":"bytes[]"},{"name":"descriptionHash","type":"bytes32","internalType":"bytes32"}],"stateMutability":"view"},{"type":"function","name":"proposalEta","inputs":[{"name":"proposalId","type":"uint256","internalType":"uint256"}],"outputs":[{"name":"","type":"uint256","internalType":"uint256"}],"stateMutability":"view"},{"type":"function","name":"proposalNeedsQueuing","inputs":[{"name":"proposalId","type":"uint256","internalType":"uint256"}],"outputs":[{"name":"","type":"bool","internalType":"bool"}],"stateMutability":"view"},{"type":"function","name":"proposalProposer","inputs":[{"name":"proposalId","type":"uint256","internalType":"uint256"}],"outputs":[{"name":"","type":"address","internalType":"address"}],"stateMutability":"view"},{"type":"function","name":"proposalSnapshot","inputs":[{"name":"proposalId","type":"uint256","internalType":"uint256"}],"outputs":[{"name":"","type":"uint256","internalType":"uint256"}],"stateMutability":"view"},{"type":"function","name":"proposalThreshold","inputs":[],"outputs":[{"name":"","type":"uint256","internalType":"uint256"}],"stateMutability":"view"},{"type":"function","name":"proposalVotes","inputs":[{"name":"proposalId","type":"uint256","internalType":"uint256"}],"outputs":[{"name":"againstVotes","type":"uint256","internalType":"uint256"},{"name":"forVotes","type":"uint256","internalType":"uint256"},{"name":"abstainVotes","type":"uint256","internalType":"uint256"}],"stateMutability":"view"},{"type":"function","name":"propose","inputs":[{"name":"targets","type":"address[]","internalType":"address[]"},{"name":"values","type":"uint256[]","internalType":"uint256[]"},{"name":"calldatas","type":"bytes[]","internalType":"bytes[]"},{"name":"description","type":"string","internalType":"string"}],"outputs":[{"name":"","type":"uint256","internalType":"uint256"}],"stateMutability":"nonpayable"},{"type":"function","name":"queue","inputs":[{"name":"targets","type":"address[]","internalType":"address[]"},{"name":"values","type":"uint256[]","internalType":"uint256[]"},{"name":"calldatas","type":"bytes[]","internalType":"bytes[]"},{"name":"descriptionHash","type":"bytes32","internalType":"bytes32"}],"outputs":[{"name":"","type":"uint256","internalType":"uint256"}],"stateMutability":"nonpayable"},{"type":"function","name":"queue","inputs":[{"name":"proposalId","type":"uint256","internalType":"uint256"}],"outputs":[],"stateMutability":"nonpayable"},{"type":"function","name":"quorum","inputs":[{"name":"timepoint","type":"uint256","internalType":"uint256"}],"outputs":[{"name":"","type":"uint256","internalType":"uint256"}],"stateMutability":"view"},{"type":"function","name":"quorumDenominator","inputs":[],"outputs":[{"name":"","type":"uint256","internalType":"uint256"}],"stateMutability":"view"},{"type":"function","name":"quorumNumerator","inputs":[{"name":"timepoint","type":"uint256","internalType":"uint256"}],"outputs":[{"name":"","type":"uint256","internalType":"uint256"}],"stateMutability":"view"},{"type":"function","name":"quorumNumerator","inputs":[],"outputs":[{"name":"","type":"uint256","internalType":"uint256"}],"stateMutability":"view"},{"type":"function","name":"relay","inputs":[{"name":"target","type":"address","internalType":"address"},{"name":"value","type":"uint256","internalType":"uint256"},{"name":"data","type":"bytes","internalType":"bytes"}],"outputs":[],"stateMutability":"payable"},{"type":"function","name":"setProposalThreshold","inputs":[{"name":"newProposalThreshold","type":"uint256","internalType":"uint256"}],"outputs":[],"stateMutability":"nonpayable"},{"type":"function","name":"setVotingDelay","inputs":[{"name":"newVotingDelay","type":"uint48","internalType":"uint48"}],"outputs":[],"stateMutability":"nonpayable"},{"type":"function","name":"setVotingPeriod","inputs":[{"name":"newVotingPeriod","type":"uint32","internalType":"uint32"}],"outputs":[],"stateMutability":"nonpayable"},{"type":"function","name":"state","inputs":[{"name":"proposalId","type":"uint256","internalType":"uint256"}],"outputs":[{"name":"","type":"uint8","internalType":"enum IGovernor.ProposalState"}],"stateMutability":"view"},{"type":"function","name":"supportsInterface","inputs":[{"name":"interfaceId","type":"bytes4","internalType":"bytes4"}],"outputs":[{"name":"","type":"bool","internalType":"bool"}],"stateMutability":"view"},{"type":"function","name":"timelock","inputs":[],"outputs":[{"name":"","type":"address","internalType":"address"}],"stateMutability":"view"},{"type":"function","name":"token","inputs":[],"outputs":[{"name":"","type":"address","internalType":"contract IERC5805"}],"stateMutability":"view"},{"type":"function","name":"updateQuorumNumerator","inputs":[{"name":"newQuorumNumerator","type":"uint256","internalType":"uint256"}],"outputs":[],"stateMutability":"nonpayable"},{"type":"function","name":"updateTimelock","inputs":[{"name":"newTimelock","type":"address","internalType":"contract TimelockController"}],"outputs":[],"stateMutability":"nonpayable"},{"type":"function","name":"version","inputs":[],"outputs":[{"name":"","type":"string","internalType":"string"}],"stateMutability":"view"},{"type":"function","name":"votingDelay","inputs":[],"outputs":[{"name":"","type":"uint256","internalType":"uint256"}],"stateMutability":"view"},{"type":"function","name":"votingPeriod","inputs":[],"outputs":[{"name":"","type":"uint256","internalType":"uint256"}],"stateMutability":"view"},{"type":"event","name":"EIP712DomainChanged","inputs":[],"anonymous":false},{"type":"event","name":"ProposalCanceled","inputs":[{"name":"proposalId","type":"uint256","indexed":false,"internalType":"uint256"}],"anonymous":false},{"type":"event","name":"ProposalCreated","inputs":[{"name":"proposalId","type":"uint256","indexed":false,"internalType":"uint256"},{"name":"proposer","type":"address","indexed":false,"internalType":"address"},{"name":"targets","type":"address[]","indexed":false,"internalType":"address[]"},{"name":"values","type":"uint256[]","indexed":false,"internalType":"uint256[]"},{"name":"signatures","type":"string[]","indexed":false,"internalType":"string[]"},{"name":"calldatas","type":"bytes[]","indexed":false,"internalType":"bytes[]"},{"name":"voteStart","type":"uint256","indexed":false,"internalType":"uint256"},{"name":"voteEnd","type":"uint256","indexed":false,"internalType":"uint256"},{"name":"description","type":"string","indexed":false,"internalType":"string"}],"anonymous":false},{"type":"event","name":"ProposalExecuted","inputs":[{"name":"proposalId","type":"uint256","indexed":false,"internalType":"uint256"}],"anonymous":false},{"type":"event","name":"ProposalQueued","inputs":[{"name":"proposalId","type":"uint256","indexed":false,"internalType":"uint256"},{"name":"etaSeconds","type":"uint256","indexed":false,"internalType":"uint256"}],"anonymous":false},{"type":"event","name":"ProposalThresholdSet","inputs":[{"name":"oldProposalThreshold","type":"uint256","indexed":false,"internalType":"uint256"},{"name":"newProposalThreshold","type":"uint256","indexed":false,"internalType":"uint256"}],"anonymous":false},{"type":"event","name":"QuorumNumeratorUpdated","inputs":[{"name":"oldQuorumNumerator","type":"uint256","indexed":false,"internalType":"uint256"},{"name":"newQuorumNumerator","type":"uint256","indexed":false,"internalType":"uint256"}],"anonymous":false},{"type":"event","name":"TimelockChange","inputs":[{"name":"oldTimelock","type":"address","indexed":false,"internalType":"address"},{"name":"newTimelock","type":"address","indexed":false,"internalType":"address"}],"anonymous":false},{"type":"event","name":"VoteCast","inputs":[{"name":"voter","type":"address","indexed":true,"internalType":"address"},{"name":"proposalId","type":"uint256","indexed":false,"internalType":"uint256"},{"name":"support","type":"uint8","indexed":false,"internalType":"uint8"},{"name":"weight","type":"uint256","indexed":false,"internalType":"uint256"},{"name":"reason","type":"string","indexed":false,"internalType":"string"}],"anonymous":false},{"type":"event","name":"VoteCastWithParams","inputs":[{"name":"voter","type":"address","indexed":true,"internalType":"address"},{"name":"proposalId","type":"uint256","indexed":false,"internalType":"uint256"},{"name":"support","type":"uint8","indexed":false,"internalType":"uint8"},{"name":"weight","type":"uint256","indexed":false,"internalType":"uint256"},{"name":"reason","type":"string","indexed":false,"internalType":"string"},{"name":"params","type":"bytes","indexed":false,"internalType":"bytes"}],"anonymous":false},{"type":"event","name":"VotingDelaySet","inputs":[{"name":"oldVotingDelay","type":"uint256","indexed":false,"internalType":"uint256"},{"name":"newVotingDelay","type":"uint256","indexed":false,"internalType":"uint256"}],"anonymous":false},{"type":"event","name":"VotingPeriodSet","inputs":[{"name":"oldVotingPeriod","type":"uint256","indexed":false,"internalType":"uint256"},{"name":"newVotingPeriod","type":"uint256","indexed":false,"internalType":"uint256"}],"anonymous":false},{"type":"error","name":"CheckpointUnorderedInsertion","inputs":[]},{"type":"error","name":"FailedCall","inputs":[]},{"type":"error","name":"GovernorAlreadyCastVote","inputs":[{"name":"voter","type":"address","internalType":"address"}]},{"type":"error","name":"GovernorAlreadyQueuedProposal","inputs":[{"name":"proposalId","type":"uint256","internalType":"uint256"}]},{"type":"error","name":"GovernorDisabledDeposit","inputs":[]},{"type":"error","name":"GovernorInsufficientProposerVotes","inputs":[{"name":"proposer","type":"address","internalType":"address"},{"name":"votes","type":"uint256","internalType":"uint256"},{"name":"threshold","type":"uint256","internalType":"uint256"}]},{"type":"error","name":"GovernorInvalidProposalLength","inputs":[{"name":"targets","type":"uint256","internalType":"uint256"},{"name":"calldatas","type":"uint256","internalType":"uint256"},{"name":"values","type":"uint256","internalType":"uint256"}]},{"type":"error","name":"GovernorInvalidQuorumFraction","inputs":[{"name":"quorumNumerator","type":"uint256","internalType":"uint256"},{"name":"quorumDenominator","type":"uint256","internalType":"uint256"}]},{"type":"error","name":"GovernorInvalidSignature","inputs":[{"name":"voter","type":"address","internalType":"address"}]},{"type":"error","name":"GovernorInvalidVoteParams","inputs":[]},{"type":"error","name":"GovernorInvalidVoteType","inputs":[]},{"type":"error","name":"GovernorInvalidVotingPeriod","inputs":[{"name":"votingPeriod","type":"uint256","internalType":"uint256"}]},{"type":"error","name":"GovernorNonexistentProposal","inputs":[{"name":"proposalId","type":"uint256","internalType":"uint256"}]},{"type":"error","name":"GovernorNotQueuedProposal","inputs":[{"name":"proposalId","type":"uint256","internalType":"uint256"}]},{"type":"error","name":"GovernorOnlyExecutor","inputs":[{"name":"account","type":"address","internalType":"address"}]},{"type":"error","name":"GovernorQueueNotImplemented","inputs":[]},{"type":"error","name":"GovernorRestrictedProposer","inputs":[{"name":"proposer","type":"address","internalType":"address"}]},{"type":"error","name":"GovernorUnableToCancel","inputs":[{"name":"proposalId","type":"uint256","internalType":"uint256"},{"name":"account","type":"address","internalType":"address"}]},{"type":"error","name":"GovernorUnexpectedProposalState","inputs":[{"name":"proposalId","type":"uint256","internalType":"uint256"},{"name":"current","type":"uint8","internalType":"enum IGovernor.ProposalState"},{"name":"expectedStates","type":"bytes32","internalType":"bytes32"}]},{"type":"error","name":"InvalidAccountNonce","inputs":[{"name":"account","type":"address","internalType":"address"},{"name":"currentNonce","type":"uint256","internalType":"uint256"}]},{"type":"error","name":"InvalidShortString","inputs":[]},{"type":"error","name":"SafeCastOverflowedUintDowncast","inputs":[{"name":"bits","type":"uint8","internalType":"uint8"},{"name":"value","type":"uint256","internalType":"uint256"}]},{"type":"error","name":"StringTooLong","inputs":[{"name":"str","type":"string","internalType":"string"}]}],"bytecode":{"object":"0x61018060405234801562000011575f80fd5b506040516200642f3803806200642f83398101604081905262000034916200076e565b8481878585886040518060400160405280600d81526020016c23b930b73a23b7bb32b93737b960991b81525080620000716200018a60201b60201c565b6200007d825f620001a5565b610120526200008e816001620001a5565b61014052815160208084019190912060e052815190820120610100524660a0526200011b60e05161010051604080517f8b73c3c69bb8fe3d512ecc4cf759cc79239f7b179b0ffacaa9a75d522b39400f60208201529081019290925260608201524660808201523060a08201525f9060c00160405160208183030381529060405280519060200120905090565b60805250503060c05260036200013282826200086b565b5062000140905083620001dd565b6200014b8262000243565b6200015681620002e8565b5050506001600160a01b031661016052620001718162000329565b506200017d81620003c8565b50505050505050620009f0565b6040805180820190915260018152603160f81b602082015290565b5f602083511015620001c457620001bc8362000431565b9050620001d7565b81620001d184826200086b565b5060ff90505b92915050565b6008546040805165ffffffffffff928316815291831660208301527fc565b045403dc03c2eea82b81a0465edad9e2e7fc4d97e11421c209da93d7a93910160405180910390a16008805465ffffffffffff191665ffffffffffff92909216919091179055565b8063ffffffff165f03620002715760405163f1cfbf0560e01b81525f60048201526024015b60405180910390fd5b6008546040805163ffffffff66010000000000009093048316815291831660208301527f7e3f7f0708a84de9203036abaa450dccc85ad5ff52f78c170f3edb55cf5e8828910160405180910390a16008805463ffffffff90921666010000000000000263ffffffff60301b19909216919091179055565b60075460408051918252602082018390527fccb45da8d5717e6c4544694297c4ba5cf151d455c9bb0ed4fc7a38411bc05461910160405180910390a1600755565b606480821115620003585760405163243e544560e01b8152600481018390526024810182905260440162000268565b5f6200036362000473565b905062000388620003736200048e565b6200037e856200050f565b600c919062000548565b505060408051828152602081018590527f0553476bf02ef2726e8ce5ced78d63e26e602e4a2257b1f559418e24b4633997910160405180910390a1505050565b600d54604080516001600160a01b03928316815291831660208301527f08f74ea46ef7894f65eabfb5e6e695de773a000b47c529ab559178069b226401910160405180910390a1600d80546001600160a01b0319166001600160a01b0392909216919091179055565b5f80829050601f815111156200045e578260405163305a27a960e01b815260040162000268919062000937565b80516200046b8262000985565b179392505050565b5f62000480600c62000564565b6001600160d01b0316905090565b5f6200049a6101605190565b6001600160a01b03166391ddadf46040518163ffffffff1660e01b8152600401602060405180830381865afa925050508015620004f6575060408051601f3d908101601f19168201909252620004f391810190620009a9565b60015b6200050a5762000505620005b1565b905090565b919050565b5f6001600160d01b0382111562000544576040516306dfcc6560e41b815260d060048201526024810183905260440162000268565b5090565b5f8062000557858585620005bd565b915091505b935093915050565b80545f908015620005a8576200058e8362000581600184620009d0565b5f91825260209091200190565b54660100000000000090046001600160d01b0316620005aa565b5f5b9392505050565b5f620005054362000722565b82545f9081908015620006c4575f620005dd8762000581600185620009d0565b805490915065ffffffffffff80821691660100000000000090046001600160d01b03169088168211156200062457604051632520601d60e01b815260040160405180910390fd5b8765ffffffffffff168265ffffffffffff16036200066257825465ffffffffffff1666010000000000006001600160d01b03891602178355620006b5565b6040805180820190915265ffffffffffff808a1682526001600160d01b03808a1660208085019182528d54600181018f555f8f815291909120945191519092166601000000000000029216919091179101555b94508593506200055c92505050565b50506040805180820190915265ffffffffffff80851682526001600160d01b0380851660208085019182528854600181018a555f8a81529182209551925190931666010000000000000291909316179201919091559050816200055c565b5f65ffffffffffff82111562000544576040516306dfcc6560e41b8152603060048201526024810183905260440162000268565b6001600160a01b03811681146200076b575f80fd5b50565b5f805f805f8060c0878903121562000784575f80fd5b8651620007918162000756565b6020880151909650620007a48162000756565b6040880151606089015160808a015160a0909a0151989b929a5090989097909650945092505050565b634e487b7160e01b5f52604160045260245ffd5b600181811c90821680620007f657607f821691505b6020821081036200081557634e487b7160e01b5f52602260045260245ffd5b50919050565b601f8211156200086657805f5260205f20601f840160051c81016020851015620008425750805b601f840160051c820191505b8181101562000863575f81556001016200084e565b50505b505050565b81516001600160401b03811115620008875762000887620007cd565b6200089f81620008988454620007e1565b846200081b565b602080601f831160018114620008d5575f8415620008bd5750858301515b5f19600386901b1c1916600185901b1785556200092f565b5f85815260208120601f198616915b828110156200090557888601518255948401946001909101908401620008e4565b50858210156200092357878501515f19600388901b60f8161c191681555b505060018460011b0185555b505050505050565b5f602080835283518060208501525f5b81811015620009655785810183015185820160400152820162000947565b505f604082860101526040601f19601f8301168501019250505092915050565b8051602080830151919081101562000815575f1960209190910360031b1b16919050565b5f60208284031215620009ba575f80fd5b815165ffffffffffff81168114620005aa575f80fd5b81810381811115620001d757634e487b7160e01b5f52601160045260245ffd5b60805160a05160c05160e051610100516101205161014051610160516159c762000a685f395f8181610b990152818161156a015281816119b701528181611ec6015261299001525f6128d401525f6128a801525f613d1401525f613cec01525f613c4701525f613c7101525f613c9b01526159c75ff3fe608060405260043610610353575f3560e01c80637ecebe00116101bd578063c28bc2fa116100f2578063e540d01d11610092578063f23a6e611161006d578063f23a6e6114610b4d578063f8ce560a14610b6c578063fc0c546a14610b8b578063fe0d94c114610bbd575f80fd5b8063e540d01d14610af0578063eb9019d414610b0f578063ece40cc114610b2e575f80fd5b8063da35c664116100cd578063da35c66414610a45578063dd4e2ba514610a59578063ddf0b00914610a9e578063deaaa7cc14610abd575f80fd5b8063c28bc2fa146109f6578063c59057e414610a09578063d33219b414610a28575f80fd5b8063a890c9101161015d578063ab58fb8e11610138578063ab58fb8e1461096e578063b58131b0146109a4578063bc197c81146109b8578063c01f9e37146109d7575f80fd5b8063a890c91014610911578063a8f8a66814610930578063a9a952941461094f575f80fd5b806391ddadf41161019857806391ddadf4146108a057806397c3d334146108cb5780639a802a6d146108de578063a7713a70146108fd575f80fd5b80637ecebe001461082657806384b0196e1461085a5780638ff262e314610881575f80fd5b80633e4f49e611610293578063567813881161023357806360c4247f1161020e57806360c4247f146107aa57806379051887146107c95780637b3c71d3146107e85780637d5e81e214610807575f80fd5b8063567813881461074d5780635b8d0e0d1461076c5780635f398a141461078b575f80fd5b8063452115d61161026e578063452115d61461069b5780634bf5d7e9146106ba578063544ffc9c146106ce57806354fd4d5014610708575f80fd5b80633e4f49e61461060857806340e58ee5146106345780634385963214610653575f80fd5b8063160cbed7116102fe5780632d63f693116102d95780632d63f693146105465780632e82db94146105915780632fe3e261146105c15780633932abb1146105f4575f80fd5b8063160cbed7146104e557806316e9eaec146105045780632656227d14610533575f80fd5b806306fdde031161032e57806306fdde0314610428578063143489d014610449578063150b7a0214610495575f80fd5b806301ffc9a7146103a757806302a251a3146103db57806306f3f9e614610409575f80fd5b366103a35730610361610bd0565b6001600160a01b0316146103a1576040517fe90a651e00000000000000000000000000000000000000000000000000000000815260040160405180910390fd5b005b5f80fd5b3480156103b2575f80fd5b506103c66103c136600461477f565b610be8565b60405190151581526020015b60405180910390f35b3480156103e6575f80fd5b506008546601000000000000900463ffffffff165b6040519081526020016103d2565b348015610414575f80fd5b506103a16104233660046147be565b610d18565b348015610433575f80fd5b5061043c610d2c565b6040516103d29190614822565b348015610454575f80fd5b5061047d6104633660046147be565b5f908152600460205260409020546001600160a01b031690565b6040516001600160a01b0390911681526020016103d2565b3480156104a0575f80fd5b506104b46104af366004614926565b610dbc565b6040517fffffffff0000000000000000000000000000000000000000000000000000000090911681526020016103d2565b3480156104f0575f80fd5b506103fb6104ff366004614af8565b610e30565b34801561050f575f80fd5b5061052361051e3660046147be565b610f2e565b6040516103d29493929190614c4c565b6103fb610541366004614af8565b611146565b348015610551575f80fd5b506103fb6105603660046147be565b5f9081526004602052604090205474010000000000000000000000000000000000000000900465ffffffffffff1690565b34801561059c575f80fd5b506105b06105ab3660046147be565b6112fa565b6040516103d2959493929190614c96565b3480156105cc575f80fd5b506103fb7f3e83946653575f9a39005e1545185629e92736b7528ab20ca3816f315424a81181565b3480156105ff575f80fd5b506103fb611339565b348015610613575f80fd5b506106276106223660046147be565b61134b565b6040516103d29190614d4d565b34801561063f575f80fd5b506103a161064e3660046147be565b611355565b34801561065e575f80fd5b506103c661066d366004614d5b565b5f8281526009602090815260408083206001600160a01b038516845260030190915290205460ff1692915050565b3480156106a6575f80fd5b506103fb6106b5366004614af8565b6114ec565b3480156106c5575f80fd5b5061043c611566565b3480156106d9575f80fd5b506106ed6106e83660046147be565b611626565b604080519384526020840192909252908201526060016103d2565b348015610713575f80fd5b5060408051808201909152600181527f3100000000000000000000000000000000000000000000000000000000000000602082015261043c565b348015610758575f80fd5b506103fb610767366004614d99565b61164b565b348015610777575f80fd5b506103fb610786366004614e08565b611672565b348015610796575f80fd5b506103fb6107a5366004614ebb565b611748565b3480156107b5575f80fd5b506103fb6107c43660046147be565b611790565b3480156107d4575f80fd5b506103a16107e3366004614f4c565b61179c565b3480156107f3575f80fd5b506103fb610802366004614f67565b6117ad565b348015610812575f80fd5b506103fb610821366004614fbd565b6117fd565b348015610831575f80fd5b506103fb61084036600461506a565b6001600160a01b03165f9081526002602052604090205490565b348015610865575f80fd5b5061086e6118e5565b6040516103d29796959493929190615085565b34801561088c575f80fd5b506103fb61089b36600461510e565b611943565b3480156108ab575f80fd5b506108b46119b4565b60405165ffffffffffff90911681526020016103d2565b3480156108d6575f80fd5b5060646103fb565b3480156108e9575f80fd5b506103fb6108f836600461515c565b611a3b565b348015610908575f80fd5b506103fb611a51565b34801561091c575f80fd5b506103a161092b36600461506a565b611a7d565b34801561093b575f80fd5b506103fb61094a366004614af8565b611a8e565b34801561095a575f80fd5b506103c66109693660046147be565b611a9b565b348015610979575f80fd5b506103fb6109883660046147be565b5f9081526004602052604090206001015465ffffffffffff1690565b3480156109af575f80fd5b506103fb611aa3565b3480156109c3575f80fd5b506104b46109d23660046151b1565b611aad565b3480156109e2575f80fd5b506103fb6109f13660046147be565b611b22565b6103a1610a0436600461523e565b611b8c565b348015610a14575f80fd5b506103fb610a23366004614af8565b611c08565b348015610a33575f80fd5b50600d546001600160a01b031661047d565b348015610a50575f80fd5b50600a546103fb565b348015610a64575f80fd5b506040805180820190915260208082527f737570706f72743d627261766f2671756f72756d3d666f722c6162737461696e9082015261043c565b348015610aa9575f80fd5b506103a1610ab83660046147be565b611c41565b348015610ac8575f80fd5b506103fb7ff2aad550cf55f045cb27e9c559f9889fdfb6e6cdaa032301d6ea397784ae51d781565b348015610afb575f80fd5b506103a1610b0a36600461527e565b611dd3565b348015610b1a575f80fd5b506103fb610b293660046152a1565b611de4565b348015610b39575f80fd5b506103a1610b483660046147be565b611e03565b348015610b58575f80fd5b506104b4610b673660046152cb565b611e14565b348015610b77575f80fd5b506103fb610b863660046147be565b611e89565b348015610b96575f80fd5b507f000000000000000000000000000000000000000000000000000000000000000061047d565b6103a1610bcb3660046147be565b611f3f565b5f610be3600d546001600160a01b031690565b905090565b5f7fffffffff0000000000000000000000000000000000000000000000000000000082167fcdbdfcee000000000000000000000000000000000000000000000000000000001480610c7a57507fffffffff0000000000000000000000000000000000000000000000000000000082167f65455a8600000000000000000000000000000000000000000000000000000000145b80610cc657507fffffffff0000000000000000000000000000000000000000000000000000000082167f4e2312e000000000000000000000000000000000000000000000000000000000145b80610d1257507f01ffc9a7000000000000000000000000000000000000000000000000000000007fffffffff000000000000000000000000000000000000000000000000000000008316145b92915050565b610d206120d1565b610d2981612163565b50565b606060038054610d3b9061532f565b80601f0160208091040260200160405190810160405280929190818152602001828054610d679061532f565b8015610db25780601f10610d8957610100808354040283529160200191610db2565b820191905f5260205f20905b815481529060010190602001808311610d9557829003601f168201915b5050505050905090565b5f30610dc6610bd0565b6001600160a01b031614610e06576040517fe90a651e00000000000000000000000000000000000000000000000000000000815260040160405180910390fd5b507f150b7a0200000000000000000000000000000000000000000000000000000000949350505050565b5f80610e3e86868686611a8e565b9050610e5381610e4e6004612211565b612233565b505f610e628288888888612289565b905065ffffffffffff811615610ef2575f8281526004602090815260409182902060010180547fffffffffffffffffffffffffffffffffffffffffffffffffffff0000000000001665ffffffffffff85169081179091558251858152918201527f9a2e42fd6722813d69113e7d0079d3d940171428df7373df9c7f7617cfda2892910160405180910390a1610f24565b6040517f90884a4600000000000000000000000000000000000000000000000000000000815260040160405180910390fd5b5095945050505050565b5f818152600b602090815260408083208151815460a0948102820185019093526080810183815260609586958695919485949390928492849190840182828015610f9f57602002820191905f5260205f20905b81546001600160a01b03168152600190910190602001808311610f81575b5050505050815260200160018201805480602002602001604051908101604052809291908181526020018280548015610ff557602002820191905f5260205f20905b815481526020019060010190808311610fe1575b5050505050815260200160028201805480602002602001604051908101604052809291908181526020015f905b828210156110ca578382905f5260205f2001805461103f9061532f565b80601f016020809104026020016040519081016040528092919081815260200182805461106b9061532f565b80156110b65780601f1061108d576101008083540402835291602001916110b6565b820191905f5260205f20905b81548152906001019060200180831161109957829003601f168201915b505050505081526020019060010190611022565b505050508152602001600382015481525050905080606001515f801b03611125576040517f6ad06075000000000000000000000000000000000000000000000000000000008152600481018790526024015b60405180910390fd5b80516020820151604083015160609093015191989097509195509350915050565b5f8061115486868686611a8e565b9050611174816111646005612211565b61116e6004612211565b17612233565b505f81815260046020526040902080547fff00ffffffffffffffffffffffffffffffffffffffffffffffffffffffffffff167e01000000000000000000000000000000000000000000000000000000000000179055306111d2610bd0565b6001600160a01b03161461125b575f5b865181101561125957306001600160a01b031687828151811061120757611207615380565b60200260200101516001600160a01b0316036112515761125185828151811061123257611232615380565b602002602001015180519060200120600561229790919063ffffffff16565b6001016111e2565b505b6112688187878787612324565b30611271610bd0565b6001600160a01b0316141580156112b357506005546fffffffffffffffffffffffffffffffff8082167001000000000000000000000000000000009092041614155b156112bd575f6005555b6040518181527f712ae1383f79ac853f8d882153778e0260ef8f03b504e2866e0593e04d2b291f906020015b60405180910390a195945050505050565b5f60608060605f600a868154811061131457611314615380565b905f5260205f200154945061132885610f2e565b979992985090969095509350915050565b5f610be360085465ffffffffffff1690565b5f610d1282612338565b5f818152600b6020908152604091829020805483518184028101840190945280845290926114e792909184918301828280156113b857602002820191905f5260205f20905b81546001600160a01b0316815260019091019060200180831161139a575b50505050508260010180548060200260200160405190810160405280929190818152602001828054801561140957602002820191905f5260205f20905b8154815260200190600101908083116113f5575b505050505083600201805480602002602001604051908101604052809291908181526020015f905b828210156114d9578382905f5260205f2001805461144e9061532f565b80601f016020809104026020016040519081016040528092919081815260200182805461147a9061532f565b80156114c55780601f1061149c576101008083540402835291602001916114c5565b820191905f5260205f20905b8154815290600101906020018083116114a857829003601f168201915b505050505081526020019060010190611431565b5050505084600301546114ec565b505050565b5f806114fa86868686611a8e565b90503361150782826124a3565b61154f576040517f8fe5d8a9000000000000000000000000000000000000000000000000000000008152600481018390526001600160a01b038216602482015260440161111c565b61155b878787876124e8565b979650505050505050565b60607f00000000000000000000000000000000000000000000000000000000000000006001600160a01b0316634bf5d7e96040518163ffffffff1660e01b81526004015f60405180830381865afa9250505080156115e557506040513d5f823e601f3d908101601f191682016040526115e291908101906153ad565b60015b611621575060408051808201909152601d81527f6d6f64653d626c6f636b6e756d6265722666726f6d3d64656661756c74000000602082015290565b919050565b5f818152600960205260409020805460018201546002909201549091905b9193909250565b5f8033905061166a84828560405180602001604052805f8152506124f5565b949350505050565b5f6116b888888888888080601f0160208091040260200160405190810160405280939291908181526020018383808284375f920191909152508a92508991506125169050565b6116f9576040517f94ab6c070000000000000000000000000000000000000000000000000000000081526001600160a01b038716600482015260240161111c565b61173c88878988888080601f0160208091040260200160405190810160405280939291908181526020018383808284375f920191909152508a92506125e3915050565b98975050505050505050565b5f8033905061155b87828888888080601f0160208091040260200160405190810160405280939291908181526020018383808284375f920191909152508a92506125e3915050565b5f610d12600c836126e7565b6117a46120d1565b610d2981612747565b5f803390506117f386828787878080601f0160208091040260200160405190810160405280939291908181526020018383808284375f920191909152506124f592505050565b9695505050505050565b5f3361180981846127c6565b61184a576040517fd9b395570000000000000000000000000000000000000000000000000000000081526001600160a01b038216600482015260240161111c565b5f611853611aa3565b905080156118d8575f61188183600161186a6119b4565b6118749190615443565b65ffffffffffff16611de4565b9050818110156118d6576040517fc242ee160000000000000000000000000000000000000000000000000000000081526001600160a01b0384166004820152602481018290526044810183905260640161111c565b505b61155b8787878786612893565b5f6060805f805f60606118f66128a1565b6118fe6128cd565b604080515f808252602082019092527f0f000000000000000000000000000000000000000000000000000000000000009b939a50919850469750309650945092509050565b5f611950858585856128fa565b611991576040517f94ab6c070000000000000000000000000000000000000000000000000000000081526001600160a01b038416600482015260240161111c565b6119ab85848660405180602001604052805f8152506124f5565b95945050505050565b5f7f00000000000000000000000000000000000000000000000000000000000000006001600160a01b03166391ddadf46040518163ffffffff1660e01b8152600401602060405180830381865afa925050508015611a2f575060408051601f3d908101601f19168201909252611a2c91810190615469565b60015b61162157610be3612983565b5f611a4784848461298d565b90505b9392505050565b5f611a5c600c612a39565b79ffffffffffffffffffffffffffffffffffffffffffffffffffff16905090565b611a856120d1565b610d2981612a93565b5f6119ab85858585611c08565b5f6001610d12565b5f610be360075490565b5f30611ab7610bd0565b6001600160a01b031614611af7576040517fe90a651e00000000000000000000000000000000000000000000000000000000815260040160405180910390fd5b507fbc197c810000000000000000000000000000000000000000000000000000000095945050505050565b5f81815260046020526040812054611b7e907a010000000000000000000000000000000000000000000000000000810463ffffffff169074010000000000000000000000000000000000000000900465ffffffffffff16615484565b65ffffffffffff1692915050565b611b946120d1565b5f80856001600160a01b0316858585604051611bb19291906154a3565b5f6040518083038185875af1925050503d805f8114611beb576040519150601f19603f3d011682016040523d82523d5f602084013e611bf0565b606091505b5091509150611bff8282612b14565b50505050505050565b5f84848484604051602001611c209493929190614c4c565b60408051601f19818403018152919052805160209091012095945050505050565b5f818152600b6020908152604091829020805483518184028101840190945280845290926114e79290918491830182828015611ca457602002820191905f5260205f20905b81546001600160a01b03168152600190910190602001808311611c86575b505050505082600101805480602002602001604051908101604052809291908181526020018280548015611cf557602002820191905f5260205f20905b815481526020019060010190808311611ce1575b505050505083600201805480602002602001604051908101604052809291908181526020015f905b82821015611dc5578382905f5260205f20018054611d3a9061532f565b80601f0160208091040260200160405190810160405280929190818152602001828054611d669061532f565b8015611db15780601f10611d8857610100808354040283529160200191611db1565b820191905f5260205f20905b815481529060010190602001808311611d9457829003601f168201915b505050505081526020019060010190611d1d565b505050508460030154610e30565b611ddb6120d1565b610d2981612b6a565b5f611a4a8383611dfe60408051602081019091525f815290565b61298d565b611e0b6120d1565b610d2981612c3a565b5f30611e1e610bd0565b6001600160a01b031614611e5e576040517fe90a651e00000000000000000000000000000000000000000000000000000000815260040160405180910390fd5b507ff23a6e610000000000000000000000000000000000000000000000000000000095945050505050565b6040517f8e539e8c000000000000000000000000000000000000000000000000000000008152600481018290525f90610d12906001600160a01b037f00000000000000000000000000000000000000000000000000000000000000001690638e539e8c90602401602060405180830381865afa158015611f0b573d5f803e3d5ffd5b505050506040513d601f19601f82011682018060405250810190611f2f91906154b2565b611f3884611790565b6064612c7b565b5f818152600b6020908152604091829020805483518184028101840190945280845290926114e79290918491830182828015611fa257602002820191905f5260205f20905b81546001600160a01b03168152600190910190602001808311611f84575b505050505082600101805480602002602001604051908101604052809291908181526020018280548015611ff357602002820191905f5260205f20905b815481526020019060010190808311611fdf575b505050505083600201805480602002602001604051908101604052809291908181526020015f905b828210156120c3578382905f5260205f200180546120389061532f565b80601f01602080910402602001604051908101604052809291908181526020018280546120649061532f565b80156120af5780601f10612086576101008083540402835291602001916120af565b820191905f5260205f20905b81548152906001019060200180831161209257829003601f168201915b50505050508152602001906001019061201b565b505050508460030154611146565b336120da610bd0565b6001600160a01b03161461211c576040517f47096e4700000000000000000000000000000000000000000000000000000000815233600482015260240161111c565b30612125610bd0565b6001600160a01b031614612161575f80366040516121449291906154a3565b604051809103902090505b8061215a6005612d2b565b0361214f57505b565b6064808211156121a9576040517f243e5445000000000000000000000000000000000000000000000000000000008152600481018390526024810182905260440161111c565b5f6121b2611a51565b90506121d16121bf6119b4565b6121c885612dc6565b600c9190612e29565b505060408051828152602081018590527f0553476bf02ef2726e8ce5ced78d63e26e602e4a2257b1f559418e24b4633997910160405180910390a1505050565b5f81600781111561222457612224614ce7565b600160ff919091161b92915050565b5f8061223e8461134b565b90505f8361224b83612211565b1603611a4a578381846040517f31b75e4d00000000000000000000000000000000000000000000000000000000815260040161111c939291906154c9565b5f6117f38686868686612e43565b81546fffffffffffffffffffffffffffffffff7001000000000000000000000000000000008204811691811660018301909116036122d9576122d96041613019565b6fffffffffffffffffffffffffffffffff8082165f90815260018086016020526040909120939093558354919092018216700100000000000000000000000000000000029116179055565b612331858585858561302a565b5050505050565b5f80612343836130cd565b9050600581600781111561235957612359614ce7565b146123645792915050565b5f838152600e60205260409081902054600d5491517f584b153e0000000000000000000000000000000000000000000000000000000081526004810182905290916001600160a01b03169063584b153e90602401602060405180830381865afa1580156123d3573d5f803e3d5ffd5b505050506040513d601f19601f820116820180604052508101906123f791906154eb565b15612406575060059392505050565b600d546040517f2ab0f529000000000000000000000000000000000000000000000000000000008152600481018390526001600160a01b0390911690632ab0f52990602401602060405180830381865afa158015612466573d5f803e3d5ffd5b505050506040513d601f19601f8201168201806040525081019061248a91906154eb565b15612499575060079392505050565b5060029392505050565b5f806124ae8461134b565b60078111156124bf576124bf614ce7565b148015611a4a5750505f91825260046020526040909120546001600160a01b0391821691161490565b5f6119ab85858585613272565b5f6119ab8585858561251160408051602081019091525f815290565b6125e3565b5f61155b856125dd7f3e83946653575f9a39005e1545185629e92736b7528ab20ca3816f315424a8118a8a8a6125688c6001600160a01b03165f90815260026020526040902080546001810190915590565b8b516020808e01919091208c518d8301206040516125c298979695949301968752602087019590955260ff9390931660408601526001600160a01b03919091166060850152608084015260a083015260c082015260e00190565b60405160208183030381529060405280519060200120613322565b84613369565b5f6125f286610e4e6001612211565b505f8681526004602052604081205461262d90879074010000000000000000000000000000000000000000900465ffffffffffff168561298d565b90505f61263d88888885886133d9565b905083515f0361269357866001600160a01b03167fb8e138887d0aa13bab447e82de9d5c1777041ecd21ca36ba824ff1e6c07ddda489888489604051612686949392919061550a565b60405180910390a261155b565b866001600160a01b03167fe2babfbac5889a709b63bb7f598b324e08bc5a4fb9ec647fb3cbc9ec07eb871289888489896040516126d4959493929190615531565b60405180910390a2979650505050505050565b5f805f6126f385613543565b9250925050838265ffffffffffff1611156127205761271b612714856135b1565b86906135fc565b612722565b805b79ffffffffffffffffffffffffffffffffffffffffffffffffffff1695945050505050565b6008546040805165ffffffffffff928316815291831660208301527fc565b045403dc03c2eea82b81a0465edad9e2e7fc4d97e11421c209da93d7a93910160405180910390a1600880547fffffffffffffffffffffffffffffffffffffffffffffffffffff0000000000001665ffffffffffff92909216919091179055565b80515f9060348110156127dd576001915050610d12565b7fffffffffffffffffffffffffffffffffffffffffffffffffffffffffffffffec81840101517fffffffffffffffffffff0000000000000000000000000000000000000000000081167f2370726f706f7365723d000000000000000000000000000000000000000000001461285757600192505050610d12565b5f8061286786602a8603866136b4565b9150915081158061155b5750866001600160a01b0316816001600160a01b031614979650505050505050565b5f6117f38686868686613790565b6060610be37f00000000000000000000000000000000000000000000000000000000000000005f613869565b6060610be37f00000000000000000000000000000000000000000000000000000000000000006001613869565b5f6119ab836125dd7ff2aad550cf55f045cb27e9c559f9889fdfb6e6cdaa032301d6ea397784ae51d788888861294c8a6001600160a01b03165f90815260026020526040902080546001810190915590565b60408051602081019690965285019390935260ff90911660608401526001600160a01b0316608083015260a082015260c0016125c2565b5f610be3436135b1565b5f7f00000000000000000000000000000000000000000000000000000000000000006040517f3a46b1a80000000000000000000000000000000000000000000000000000000081526001600160a01b038681166004830152602482018690529190911690633a46b1a890604401602060405180830381865afa158015612a15573d5f803e3d5ffd5b505050506040513d601f19601f82011682018060405250810190611a4791906154b2565b80545f908015612a8b57612a5f83612a5260018461556a565b5f91825260209091200190565b546601000000000000900479ffffffffffffffffffffffffffffffffffffffffffffffffffff16611a4a565b5f9392505050565b600d54604080516001600160a01b03928316815291831660208301527f08f74ea46ef7894f65eabfb5e6e695de773a000b47c529ab559178069b226401910160405180910390a1600d80547fffffffffffffffffffffffff0000000000000000000000000000000000000000166001600160a01b0392909216919091179055565b60608215612b23575080610d12565b815115612b3857612b3382613912565b610d12565b6040517fd6bda27500000000000000000000000000000000000000000000000000000000815260040160405180910390fd5b8063ffffffff165f03612bab576040517ff1cfbf050000000000000000000000000000000000000000000000000000000081525f600482015260240161111c565b6008546040805163ffffffff66010000000000009093048316815291831660208301527f7e3f7f0708a84de9203036abaa450dccc85ad5ff52f78c170f3edb55cf5e8828910160405180910390a16008805463ffffffff9092166601000000000000027fffffffffffffffffffffffffffffffffffffffffffff00000000ffffffffffff909216919091179055565b60075460408051918252602082018390527fccb45da8d5717e6c4544694297c4ba5cf151d455c9bb0ed4fc7a38411bc05461910160405180910390a1600755565b5f805f612c88868661391a565b91509150815f03612cac57838181612ca257612ca261557d565b0492505050611a4a565b818411612cc357612cc36003851502601118613019565b5f848688095f868103871696879004966002600389028118808a02820302808a02820302808a02820302808a02820302808a02820302808a02909103029181900381900460010185841190960395909502919093039390930492909217029150509392505050565b80545f906fffffffffffffffffffffffffffffffff808216917001000000000000000000000000000000009004168103612d6957612d696031613019565b6fffffffffffffffffffffffffffffffff8181165f908152600185810160205260408220805492905585547fffffffffffffffffffffffffffffffff00000000000000000000000000000000169301909116919091179092555090565b5f79ffffffffffffffffffffffffffffffffffffffffffffffffffff821115612e25576040517f6dfcc65000000000000000000000000000000000000000000000000000000000815260d060048201526024810183905260440161111c565b5090565b5f80612e36858585613936565b915091505b935093915050565b5f80600d5f9054906101000a90046001600160a01b03166001600160a01b031663f27a0c926040518163ffffffff1660e01b8152600401602060405180830381865afa158015612e95573d5f803e3d5ffd5b505050506040513d601f19601f82011682018060405250810190612eb991906154b2565b90505f3060601b7fffffffffffffffffffffffffffffffffffffffff000000000000000000000000168418600d546040517fb1c5f4270000000000000000000000000000000000000000000000000000000081529192506001600160a01b03169063b1c5f42790612f36908a908a908a905f9088906004016155aa565b602060405180830381865afa158015612f51573d5f803e3d5ffd5b505050506040513d601f19601f82011682018060405250810190612f7591906154b2565b5f898152600e602052604080822092909255600d5491517f8f2a0bb00000000000000000000000000000000000000000000000000000000081526001600160a01b0390921691638f2a0bb091612fd8918b918b918b919088908a906004016155f7565b5f604051808303815f87803b158015612fef575f80fd5b505af1158015613001573d5f803e3d5ffd5b5050505061173c8242613014919061564e565b6135b1565b634e487b715f52806020526024601cfd5b600d546001600160a01b031663e38335e5348686865f3060601b7fffffffffffffffffffffffffffffffffffffffff0000000000000000000000001688186040518763ffffffff1660e01b81526004016130889594939291906155aa565b5f604051808303818588803b15801561309f575f80fd5b505af11580156130b1573d5f803e3d5ffd5b5050505f9687525050600e602052505060408320929092555050565b5f818152600460205260408120805460ff7e0100000000000000000000000000000000000000000000000000000000000082048116917f0100000000000000000000000000000000000000000000000000000000000000900416811561313857506007949350505050565b801561314957506002949350505050565b5f8581526004602052604081205474010000000000000000000000000000000000000000900465ffffffffffff169050805f036131b5576040517f6ad060750000000000000000000000000000000000000000000000000000000081526004810187905260240161111c565b5f6131be6119b4565b65ffffffffffff1690508082106131db57505f9695505050505050565b5f6131e588611b22565b90508181106131fc57506001979650505050505050565b61320588613af7565b158061322457505f888152600960205260409020805460019091015411155b1561323757506003979650505050505050565b5f8881526004602052604090206001015465ffffffffffff165f0361326457506004979650505050505050565b506005979650505050505050565b5f8061328086868686613b58565b5f818152600e60205260409020549091508015610f2457600d546040517fc4d252f5000000000000000000000000000000000000000000000000000000008152600481018390526001600160a01b039091169063c4d252f5906024015f604051808303815f87803b1580156132f3575f80fd5b505af1158015613305573d5f803e3d5ffd5b5050505f838152600e602052604081205550509050949350505050565b5f610d1261332e613c3b565b836040517f19010000000000000000000000000000000000000000000000000000000000008152600281019290925260228201526042902090565b5f836001600160a01b03163b5f036133c7575f806133878585613d64565b5090925090505f8160038111156133a0576133a0614ce7565b1480156133be5750856001600160a01b0316826001600160a01b0316145b92505050611a4a565b6133d2848484613dad565b9050611a4a565b5f8581526009602090815260408083206001600160a01b03881684526003810190925282205460ff1615613444576040517f71c6af490000000000000000000000000000000000000000000000000000000081526001600160a01b038716600482015260240161111c565b6001600160a01b0386165f908152600382016020526040902080547fffffffffffffffffffffffffffffffffffffffffffffffffffffffffffffff0016600117905560ff85166134ab5783815f015f8282546134a0919061564e565b909155506135389050565b5f1960ff8616016134c95783816001015f8282546134a0919061564e565b7ffffffffffffffffffffffffffffffffffffffffffffffffffffffffffffffffe60ff8616016135065783816002015f8282546134a0919061564e565b6040517f06b337c200000000000000000000000000000000000000000000000000000000815260040160405180910390fd5b509195945050505050565b80545f9081908190808203613561575f805f93509350935050611644565b5f61357186612a5260018561556a565b546001955065ffffffffffff811694506601000000000000900479ffffffffffffffffffffffffffffffffffffffffffffffffffff169250611644915050565b5f65ffffffffffff821115612e25576040517f6dfcc650000000000000000000000000000000000000000000000000000000008152603060048201526024810183905260440161111c565b81545f9081816005811115613658575f61361584613e17565b61361f908561556a565b5f8881526020902090915081015465ffffffffffff908116908716101561364857809150613656565b61365381600161564e565b92505b505b5f61366587878585613f7c565b905080156136a85761367c87612a5260018461556a565b546601000000000000900479ffffffffffffffffffffffffffffffffffffffffffffffffffff1661155b565b505f9695505050505050565b5f8084518311806136c457508284115b156136d357505f905080612e3b565b5f6136df85600161564e565b8411801561373a57507f30780000000000000000000000000000000000000000000000000000000000006137168787016020015190565b7fffff00000000000000000000000000000000000000000000000000000000000016145b90505f61374a8215156002615661565b61375590602861564e565b905080613762878761556a565b03613783575f80613774898989613fdb565b9096509450612e3b9350505050565b5f80935093505050612e3b565b5f8061379f87878787876140cf565b600a80546001810182555f9182527fc65a7bb8d6351c1cf70c95a316cc6a92839c986682d98bc35f958f4883f9d2a801829055604080516080810182528a815260208181018b90528183018a90528851898201206060830152848452600b815291909220825180519495509293909261381c928492910190614618565b506020828101518051613835926001850192019061468f565b50604082015180516138519160028401916020909101906146c8565b50606091909101516003909101559695505050505050565b606060ff83146138835761387c8361439e565b9050610d12565b81805461388f9061532f565b80601f01602080910402602001604051908101604052809291908181526020018280546138bb9061532f565b80156139065780601f106138dd57610100808354040283529160200191613906565b820191905f5260205f20905b8154815290600101906020018083116138e957829003601f168201915b50505050509050610d12565b805160208201fd5b5f805f1983850993909202808410938190039390930393915050565b82545f9081908015613a87575f61395287612a5260018561556a565b805490915065ffffffffffff808216916601000000000000900479ffffffffffffffffffffffffffffffffffffffffffffffffffff169088168211156139c4576040517f2520601d00000000000000000000000000000000000000000000000000000000815260040160405180910390fd5b8765ffffffffffff168265ffffffffffff1603613a1357825465ffffffffffff16660100000000000079ffffffffffffffffffffffffffffffffffffffffffffffffffff891602178355613a79565b6040805180820190915265ffffffffffff808a16825279ffffffffffffffffffffffffffffffffffffffffffffffffffff808a1660208085019182528d54600181018f555f8f815291909120945191519092166601000000000000029216919091179101555b9450859350612e3b92505050565b50506040805180820190915265ffffffffffff808516825279ffffffffffffffffffffffffffffffffffffffffffffffffffff80851660208085019182528854600181018a555f8a8152918220955192519093166601000000000000029190931617920191909155905081612e3b565b5f81815260096020526040812060028101546001820154613b18919061564e565b5f84815260046020526040902054613b4f9074010000000000000000000000000000000000000000900465ffffffffffff16611e89565b11159392505050565b5f80613b6686868686611a8e565b9050613bb481613b766007612211565b613b806006612211565b613b8a6002612211565b6001613b97600782615678565b613ba2906002615771565b613bac919061556a565b181818612233565b505f818152600460205260409081902080547effffffffffffffffffffffffffffffffffffffffffffffffffffffffffffff167f0100000000000000000000000000000000000000000000000000000000000000179055517f789cf55be980739dad1d0699b93b58e806b51c9d96619bfa8fe0a28abaa7b30c906112e99083815260200190565b5f306001600160a01b037f000000000000000000000000000000000000000000000000000000000000000016148015613c9357507f000000000000000000000000000000000000000000000000000000000000000046145b15613cbd57507f000000000000000000000000000000000000000000000000000000000000000090565b610be3604080517f8b73c3c69bb8fe3d512ecc4cf759cc79239f7b179b0ffacaa9a75d522b39400f60208201527f0000000000000000000000000000000000000000000000000000000000000000918101919091527f000000000000000000000000000000000000000000000000000000000000000060608201524660808201523060a08201525f9060c00160405160208183030381529060405280519060200120905090565b5f805f8351604103613d9b576020840151604085015160608601515f1a613d8d888285856143db565b955095509550505050613da6565b505081515f91506002905b9250925092565b8051604080517f1626ba7e000000000000000000000000000000000000000000000000000000008082526004820186905260248201929092525f92906020820185604483015e60205f60648401838a5afa9050825f511460193d1116811693505050509392505050565b5f60018211613e24575090565b8160017001000000000000000000000000000000008210613e4a5760809190911c9060401b5b680100000000000000008210613e655760409190911c9060201b5b6401000000008210613e7c5760209190911c9060101b5b620100008210613e915760109190911c9060081b5b6101008210613ea55760089190911c9060041b5b60108210613eb85760049190911c9060021b5b60048210613ec45760011b5b600302600190811c90818581613edc57613edc61557d565b048201901c90506001818581613ef457613ef461557d565b048201901c90506001818581613f0c57613f0c61557d565b048201901c90506001818581613f2457613f2461557d565b048201901c90506001818581613f3c57613f3c61557d565b048201901c90506001818581613f5457613f5461557d565b048201901c9050613f73818581613f6d57613f6d61557d565b04821190565b90039392505050565b5f5b81831015613fd3575f613f9184846144a3565b5f8781526020902090915065ffffffffffff86169082015465ffffffffffff161115613fbf57809250613fcd565b613fca81600161564e565b93505b50613f7e565b509392505050565b5f808481613fea86600161564e565b8511801561404557507f30780000000000000000000000000000000000000000000000000000000000006140218388016020015190565b7fffff00000000000000000000000000000000000000000000000000000000000016145b90505f6140558215156002615661565b90505f80614063838a61564e565b90505b878110156140be575f61408461407f8784016020015190565b6144bd565b9050600f8160ff1611156140a3575f8097509750505050505050612e3b565b6140ae601084615661565b60ff909116019150600101614066565b506001999098509650505050505050565b5f6140e38686868680519060200120611a8e565b9050845186511415806140f857508351865114155b8061410257508551155b15614150578551845186516040517f447b05d000000000000000000000000000000000000000000000000000000000815260048101939093526024830191909152604482015260640161111c565b5f8181526004602052604090205474010000000000000000000000000000000000000000900465ffffffffffff16156141c3578061418d8261134b565b6040517f31b75e4d00000000000000000000000000000000000000000000000000000000815261111c9291905f906004016154c9565b5f6141cc611339565b6141d46119b4565b65ffffffffffff166141e6919061564e565b90505f61420360085463ffffffff66010000000000009091041690565b5f84815260046020526040902080547fffffffffffffffffffffffff0000000000000000000000000000000000000000166001600160a01b03871617815590915061424d836135b1565b815465ffffffffffff9190911674010000000000000000000000000000000000000000027fffffffffffff000000000000ffffffffffffffffffffffffffffffffffffffff9091161781556142a18261458f565b815463ffffffff919091167a010000000000000000000000000000000000000000000000000000027fffff00000000ffffffffffffffffffffffffffffffffffffffffffffffffffff90911617815588517f7d84a6263ae0d98d3329bd7b46bb4e8d6f98cd35a7adb45c274c8b7fd5ebd5e090859087908c908c9067ffffffffffffffff81111561433457614334614848565b60405190808252806020026020018201604052801561436757816020015b60608152602001906001900390816143525790505b508c896143748a8261564e565b8e60405161438a9998979695949392919061577f565b60405180910390a150505095945050505050565b60605f6143aa836145d8565b6040805160208082528183019092529192505f91906020820181803683375050509182525060208101929092525090565b5f80807f7fffffffffffffffffffffffffffffff5d576e7357a4501ddfe92f46681b20a084111561441457505f91506003905082614499565b604080515f808252602082018084528a905260ff891692820192909252606081018790526080810186905260019060a0016020604051602081039080840390855afa158015614465573d5f803e3d5ffd5b5050604051601f1901519150506001600160a01b03811661449057505f925060019150829050614499565b92505f91508190505b9450945094915050565b5f6144b16002848418615855565b611a4a9084841661564e565b5f60f882901c602f811180156144d65750603a8160ff16105b15614502577fffffffffffffffffffffffffffffffffffffffffffffffffffffffffffffffd001610d12565b60608160ff16118015614518575060678160ff16105b15614544577fffffffffffffffffffffffffffffffffffffffffffffffffffffffffffffffa901610d12565b60408160ff1611801561455a575060478160ff16105b15614586577fffffffffffffffffffffffffffffffffffffffffffffffffffffffffffffffc901610d12565b5060ff92915050565b5f63ffffffff821115612e25576040517f6dfcc650000000000000000000000000000000000000000000000000000000008152602060048201526024810183905260440161111c565b5f60ff8216601f811115610d12576040517fb3512b0c00000000000000000000000000000000000000000000000000000000815260040160405180910390fd5b828054828255905f5260205f20908101928215614683579160200282015b8281111561468357825182547fffffffffffffffffffffffff0000000000000000000000000000000000000000166001600160a01b03909116178255602090920191600190910190614636565b50612e25929150614718565b828054828255905f5260205f20908101928215614683579160200282015b828111156146835782518255916020019190600101906146ad565b828054828255905f5260205f2090810192821561470c579160200282015b8281111561470c57825182906146fc90826158d1565b50916020019190600101906146e6565b50612e2592915061472c565b5b80821115612e25575f8155600101614719565b80821115612e25575f61473f8282614748565b5060010161472c565b5080546147549061532f565b5f825580601f10614763575050565b601f0160209004905f5260205f2090810190610d299190614718565b5f6020828403121561478f575f80fd5b81357fffffffff0000000000000000000000000000000000000000000000000000000081168114611a4a575f80fd5b5f602082840312156147ce575f80fd5b5035919050565b5f5b838110156147ef5781810151838201526020016147d7565b50505f910152565b5f815180845261480e8160208601602086016147d5565b601f01601f19169290920160200192915050565b602081525f611a4a60208301846147f7565b6001600160a01b0381168114610d29575f80fd5b7f4e487b71000000000000000000000000000000000000000000000000000000005f52604160045260245ffd5b604051601f8201601f1916810167ffffffffffffffff8111828210171561489e5761489e614848565b604052919050565b5f67ffffffffffffffff8211156148bf576148bf614848565b50601f01601f191660200190565b5f6148df6148da846148a6565b614875565b90508281528383830111156148f2575f80fd5b828260208301375f602084830101529392505050565b5f82601f830112614917575f80fd5b611a4a838335602085016148cd565b5f805f8060808587031215614939575f80fd5b843561494481614834565b9350602085013561495481614834565b925060408501359150606085013567ffffffffffffffff811115614976575f80fd5b61498287828801614908565b91505092959194509250565b5f67ffffffffffffffff8211156149a7576149a7614848565b5060051b60200190565b5f82601f8301126149c0575f80fd5b813560206149d06148da8361498e565b8083825260208201915060208460051b8701019350868411156149f1575f80fd5b602086015b84811015614a16578035614a0981614834565b83529183019183016149f6565b509695505050505050565b5f82601f830112614a30575f80fd5b81356020614a406148da8361498e565b8083825260208201915060208460051b870101935086841115614a61575f80fd5b602086015b84811015614a165780358352918301918301614a66565b5f82601f830112614a8c575f80fd5b81356020614a9c6148da8361498e565b82815260059290921b84018101918181019086841115614aba575f80fd5b8286015b84811015614a1657803567ffffffffffffffff811115614adc575f80fd5b614aea8986838b0101614908565b845250918301918301614abe565b5f805f8060808587031215614b0b575f80fd5b843567ffffffffffffffff80821115614b22575f80fd5b614b2e888389016149b1565b95506020870135915080821115614b43575f80fd5b614b4f88838901614a21565b94506040870135915080821115614b64575f80fd5b50614b7187828801614a7d565b949793965093946060013593505050565b5f815180845260208085019450602084015f5b83811015614bba5781516001600160a01b031687529582019590820190600101614b95565b509495945050505050565b5f815180845260208085019450602084015f5b83811015614bba57815187529582019590820190600101614bd8565b5f8282518085526020808601955060208260051b840101602086015f5b84811015614c3f57601f19868403018952614c2d8383516147f7565b98840198925090830190600101614c11565b5090979650505050505050565b608081525f614c5e6080830187614b82565b8281036020840152614c708187614bc5565b90508281036040840152614c848186614bf4565b91505082606083015295945050505050565b85815260a060208201525f614cae60a0830187614b82565b8281036040840152614cc08187614bc5565b90508281036060840152614cd48186614bf4565b9150508260808301529695505050505050565b7f4e487b71000000000000000000000000000000000000000000000000000000005f52602160045260245ffd5b60088110614d49577f4e487b71000000000000000000000000000000000000000000000000000000005f52602160045260245ffd5b9052565b60208101610d128284614d14565b5f8060408385031215614d6c575f80fd5b823591506020830135614d7e81614834565b809150509250929050565b803560ff81168114611621575f80fd5b5f8060408385031215614daa575f80fd5b82359150614dba60208401614d89565b90509250929050565b5f8083601f840112614dd3575f80fd5b50813567ffffffffffffffff811115614dea575f80fd5b602083019150836020828501011115614e01575f80fd5b9250929050565b5f805f805f805f60c0888a031215614e1e575f80fd5b87359650614e2e60208901614d89565b95506040880135614e3e81614834565b9450606088013567ffffffffffffffff80821115614e5a575f80fd5b614e668b838c01614dc3565b909650945060808a0135915080821115614e7e575f80fd5b614e8a8b838c01614908565b935060a08a0135915080821115614e9f575f80fd5b50614eac8a828b01614908565b91505092959891949750929550565b5f805f805f60808688031215614ecf575f80fd5b85359450614edf60208701614d89565b9350604086013567ffffffffffffffff80821115614efb575f80fd5b614f0789838a01614dc3565b90955093506060880135915080821115614f1f575f80fd5b50614f2c88828901614908565b9150509295509295909350565b65ffffffffffff81168114610d29575f80fd5b5f60208284031215614f5c575f80fd5b8135611a4a81614f39565b5f805f8060608587031215614f7a575f80fd5b84359350614f8a60208601614d89565b9250604085013567ffffffffffffffff811115614fa5575f80fd5b614fb187828801614dc3565b95989497509550505050565b5f805f8060808587031215614fd0575f80fd5b843567ffffffffffffffff80821115614fe7575f80fd5b614ff3888389016149b1565b95506020870135915080821115615008575f80fd5b61501488838901614a21565b94506040870135915080821115615029575f80fd5b61503588838901614a7d565b9350606087013591508082111561504a575f80fd5b508501601f8101871361505b575f80fd5b614982878235602084016148cd565b5f6020828403121561507a575f80fd5b8135611a4a81614834565b7fff000000000000000000000000000000000000000000000000000000000000008816815260e060208201525f6150bf60e08301896147f7565b82810360408401526150d181896147f7565b90508660608401526001600160a01b03861660808401528460a084015282810360c08401526151008185614bc5565b9a9950505050505050505050565b5f805f8060808587031215615121575f80fd5b8435935061513160208601614d89565b9250604085013561514181614834565b9150606085013567ffffffffffffffff811115614976575f80fd5b5f805f6060848603121561516e575f80fd5b833561517981614834565b925060208401359150604084013567ffffffffffffffff81111561519b575f80fd5b6151a786828701614908565b9150509250925092565b5f805f805f60a086880312156151c5575f80fd5b85356151d081614834565b945060208601356151e081614834565b9350604086013567ffffffffffffffff808211156151fc575f80fd5b61520889838a01614a21565b9450606088013591508082111561521d575f80fd5b61522989838a01614a21565b93506080880135915080821115614f1f575f80fd5b5f805f8060608587031215615251575f80fd5b843561525c81614834565b935060208501359250604085013567ffffffffffffffff811115614fa5575f80fd5b5f6020828403121561528e575f80fd5b813563ffffffff81168114611a4a575f80fd5b5f80604083850312156152b2575f80fd5b82356152bd81614834565b946020939093013593505050565b5f805f805f60a086880312156152df575f80fd5b85356152ea81614834565b945060208601356152fa81614834565b93506040860135925060608601359150608086013567ffffffffffffffff811115615323575f80fd5b614f2c88828901614908565b600181811c9082168061534357607f821691505b60208210810361537a577f4e487b71000000000000000000000000000000000000000000000000000000005f52602260045260245ffd5b50919050565b7f4e487b71000000000000000000000000000000000000000000000000000000005f52603260045260245ffd5b5f602082840312156153bd575f80fd5b815167ffffffffffffffff8111156153d3575f80fd5b8201601f810184136153e3575f80fd5b80516153f16148da826148a6565b818152856020838501011115615405575f80fd5b6119ab8260208301602086016147d5565b7f4e487b71000000000000000000000000000000000000000000000000000000005f52601160045260245ffd5b65ffffffffffff82811682821603908082111561546257615462615416565b5092915050565b5f60208284031215615479575f80fd5b8151611a4a81614f39565b65ffffffffffff81811683821601908082111561546257615462615416565b818382375f9101908152919050565b5f602082840312156154c2575f80fd5b5051919050565b838152606081016154dd6020830185614d14565b826040830152949350505050565b5f602082840312156154fb575f80fd5b81518015158114611a4a575f80fd5b84815260ff84166020820152826040820152608060608201525f6117f360808301846147f7565b85815260ff8516602082015283604082015260a060608201525f61555860a08301856147f7565b828103608084015261173c81856147f7565b81810381811115610d1257610d12615416565b7f4e487b71000000000000000000000000000000000000000000000000000000005f52601260045260245ffd5b60a081525f6155bc60a0830188614b82565b82810360208401526155ce8188614bc5565b905082810360408401526155e28187614bf4565b60608401959095525050608001529392505050565b60c081525f61560960c0830189614b82565b828103602084015261561b8189614bc5565b9050828103604084015261562f8188614bf4565b60608401969096525050608081019290925260a0909101529392505050565b80820180821115610d1257610d12615416565b8082028115828204841417610d1257610d12615416565b60ff8181168382160190811115610d1257610d12615416565b600181815b808511156156cb57815f19048211156156b1576156b1615416565b808516156156be57918102915b93841c9390800290615696565b509250929050565b5f826156e157506001610d12565b816156ed57505f610d12565b8160018114615703576002811461570d57615729565b6001915050610d12565b60ff84111561571e5761571e615416565b50506001821b610d12565b5060208310610133831016604e8410600b841016171561574c575081810a610d12565b6157568383615691565b805f190482111561576957615769615416565b029392505050565b5f611a4a60ff8416836156d3565b5f6101208b835260206001600160a01b038c16818501528160408501526157a88285018c614b82565b915083820360608501526157bc828b614bc5565b915083820360808501528189518084528284019150828160051b850101838c015f5b8381101561580c57601f198784030185526157fa8383516147f7565b948601949250908501906001016157de565b505086810360a0880152615820818c614bf4565b9450505050508560c08401528460e084015282810361010084015261584581856147f7565b9c9b505050505050505050505050565b5f82615888577f4e487b71000000000000000000000000000000000000000000000000000000005f52601260045260245ffd5b500490565b601f8211156114e757805f5260205f20601f840160051c810160208510156158b25750805b601f840160051c820191505b81811015612331575f81556001016158be565b815167ffffffffffffffff8111156158eb576158eb614848565b6158ff816158f9845461532f565b8461588d565b602080601f831160018114615932575f841561591b5750858301515b5f19600386901b1c1916600185901b178555615989565b5f85815260208120601f198616915b8281101561596057888601518255948401946001909101908401615941565b508582101561597d57878501515f19600388901b60f8161c191681555b505060018460011b0185555b50505050505056fea264697066735822122021da76211d7fd74dbfcd975aa3fa442fb23dd7ef60330c2d8aff5c56027876d164736f6c63430008180033","linkReferences":{}},"methodIdentifiers":{"BALLOT_TYPEHASH()":"deaaa7cc","CLOCK_MODE()":"4bf5d7e9","COUNTING_MODE()":"dd4e2ba5","EXTENDED_BALLOT_TYPEHASH()":"2fe3e261","cancel(address[],uint256[],bytes[],bytes32)":"452115d6","cancel(uint256)":"40e58ee5","castVote(uint256,uint8)":"56781388","castVoteBySig(uint256,uint8,address,bytes)":"8ff262e3","castVoteWithReason(uint256,uint8,string)":"7b3c71d3","castVoteWithReasonAndParams(uint256,uint8,string,bytes)":"5f398a14","castVoteWithReasonAndParamsBySig(uint256,uint8,address,string,bytes,bytes)":"5b8d0e0d","clock()":"91ddadf4","eip712Domain()":"84b0196e","execute(address[],uint256[],bytes[],bytes32)":"2656227d","execute(uint256)":"fe0d94c1","getProposalId(address[],uint256[],bytes[],bytes32)":"a8f8a668","getVotes(address,uint256)":"eb9019d4","getVotesWithParams(address,uint256,bytes)":"9a802a6d","hasVoted(uint256,address)":"43859632","hashProposal(address[],uint256[],bytes[],bytes32)":"c59057e4","name()":"06fdde03","nonces(address)":"7ecebe00","onERC1155BatchReceived(address,address,uint256[],uint256[],bytes)":"bc197c81","onERC1155Received(address,address,uint256,uint256,bytes)":"f23a6e61","onERC721Received(address,address,uint256,bytes)":"150b7a02","proposalCount()":"da35c664","proposalDeadline(uint256)":"c01f9e37","proposalDetails(uint256)":"16e9eaec","proposalDetailsAt(uint256)":"2e82db94","proposalEta(uint256)":"ab58fb8e","proposalNeedsQueuing(uint256)":"a9a95294","proposalProposer(uint256)":"143489d0","proposalSnapshot(uint256)":"2d63f693","proposalThreshold()":"b58131b0","proposalVotes(uint256)":"544ffc9c","propose(address[],uint256[],bytes[],string)":"7d5e81e2","queue(address[],uint256[],bytes[],bytes32)":"160cbed7","queue(uint256)":"ddf0b009","quorum(uint256)":"f8ce560a","quorumDenominator()":"97c3d334","quorumNumerator()":"a7713a70","quorumNumerator(uint256)":"60c4247f","relay(address,uint256,bytes)":"c28bc2fa","setProposalThreshold(uint256)":"ece40cc1","setVotingDelay(uint48)":"79051887","setVotingPeriod(uint32)":"e540d01d","state(uint256)":"3e4f49e6","supportsInterface(bytes4)":"01ffc9a7","timelock()":"d33219b4","token()":"fc0c546a","updateQuorumNumerator(uint256)":"06f3f9e6","updateTimelock(address)":"a890c910","version()":"54fd4d50","votingDelay()":"3932abb1","votingPeriod()":"02a251a3"},"id":78}